{
  "_format": "hh-sol-artifact-1",
  "contractName": "WavePortal",
  "sourceName": "contracts/WavePortal.sol",
  "abi": [
    {
      "inputs": [],
      "stateMutability": "nonpayable",
      "type": "constructor"
    },
    {
      "inputs": [
        {
          "internalType": "address",
          "name": "",
          "type": "address"
        }
      ],
      "name": "brosMap",
      "outputs": [
        {
          "internalType": "uint256",
          "name": "totalWaves",
          "type": "uint256"
        },
        {
          "internalType": "uint256",
          "name": "timeStamp",
          "type": "uint256"
        },
        {
          "internalType": "string",
          "name": "tweet",
          "type": "string"
        }
      ],
      "stateMutability": "view",
      "type": "function"
    },
    {
      "inputs": [],
      "name": "getDate",
      "outputs": [
        {
          "internalType": "uint256",
          "name": "",
          "type": "uint256"
        }
      ],
      "stateMutability": "view",
      "type": "function"
    },
    {
      "inputs": [],
      "name": "getTotalWaves",
      "outputs": [
        {
          "internalType": "uint256",
          "name": "",
          "type": "uint256"
        }
      ],
      "stateMutability": "view",
      "type": "function"
    },
    {
      "inputs": [],
      "name": "getTotalWavesByBros",
      "outputs": [
        {
          "internalType": "uint256",
          "name": "",
          "type": "uint256"
        }
      ],
      "stateMutability": "view",
      "type": "function"
    },
    {
      "inputs": [],
      "name": "getTweet",
      "outputs": [
        {
          "internalType": "string",
          "name": "",
          "type": "string"
        }
      ],
      "stateMutability": "view",
      "type": "function"
    },
    {
      "inputs": [
        {
          "internalType": "string",
          "name": "message",
          "type": "string"
        }
      ],
      "name": "tweet",
      "outputs": [],
      "stateMutability": "nonpayable",
      "type": "function"
    },
    {
      "inputs": [],
      "name": "wave",
      "outputs": [],
      "stateMutability": "nonpayable",
      "type": "function"
    }
  ],
  "bytecode": "0x60806040523480156200001157600080fd5b50620000416040518060600160405280603d815260200162000e3e603d91396200004760201b620005091760201c565b620001db565b620000e7816040516024016200005e919062000154565b6040516020818303038152906040527f41304fac000000000000000000000000000000000000000000000000000000007bffffffffffffffffffffffffffffffffffffffffffffffffffffffff19166020820180517bffffffffffffffffffffffffffffffffffffffffffffffffffffffff8381831617835250505050620000ea60201b60201c565b50565b60008151905060006a636f6e736f6c652e6c6f679050602083016000808483855afa5050505050565b6000620001208262000178565b6200012c818562000183565b93506200013e81856020860162000194565b6200014981620001ca565b840191505092915050565b6000602082019050818103600083015262000170818462000113565b905092915050565b600081519050919050565b600082825260208201905092915050565b60005b83811015620001b457808201518184015260208101905062000197565b83811115620001c4576000848401525b50505050565b6000601f19601f8301169050919050565b610c5380620001eb6000396000f3fe608060405234801561001057600080fd5b506004361061007d5760003560e01c80636fe15b441161005b5780636fe15b44146100f057806380d42c45146100fa5780639a2cdc0814610118578063fb46d4c5146101365761007d565b80631e587385146100825780633a756bd6146100b4578063430fe9c1146100d2575b600080fd5b61009c60048036038101906100979190610823565b610152565b6040516100ab93929190610981565b60405180910390f35b6100bc610204565b6040516100c991906108e4565b60405180910390f35b6100da6102d6565b6040516100e79190610966565b60405180910390f35b6100f8610320565b005b61010261041a565b60405161010f9190610966565b60405180910390f35b610120610464565b60405161012d9190610966565b60405180910390f35b610150600480360381019061014b919061084c565b6104af565b005b600160205280600052604060002060009150905080600001549080600101549080600201805461018190610b05565b80601f01602080910402602001604051908101604052809291908181526020018280546101ad90610b05565b80156101fa5780601f106101cf576101008083540402835291602001916101fa565b820191906000526020600020905b8154815290600101906020018083116101dd57829003601f168201915b5050505050905083565b6060600160003373ffffffffffffffffffffffffffffffffffffffff1673ffffffffffffffffffffffffffffffffffffffff168152602001908152602001600020600201805461025390610b05565b80601f016020809104026020016040519081016040528092919081815260200182805461027f90610b05565b80156102cc5780601f106102a1576101008083540402835291602001916102cc565b820191906000526020600020905b8154815290600101906020018083116102af57829003601f168201915b5050505050905090565b6000600160003373ffffffffffffffffffffffffffffffffffffffff1673ffffffffffffffffffffffffffffffffffffffff16815260200190815260200160002060010154905090565b60016000808282546103329190610a31565b9250508190555060018060003373ffffffffffffffffffffffffffffffffffffffff1673ffffffffffffffffffffffffffffffffffffffff168152602001908152602001600020600001600082825461038b9190610a31565b9250508190555042600160003373ffffffffffffffffffffffffffffffffffffffff1673ffffffffffffffffffffffffffffffffffffffff168152602001908152602001600020600101819055506104186040518060400160405280600d81526020017f2573206861732077617665642100000000000000000000000000000000000000815250336105a2565b565b6000600160003373ffffffffffffffffffffffffffffffffffffffff1673ffffffffffffffffffffffffffffffffffffffff16815260200190815260200160002060000154905090565b60006104a76040518060400160405280601a81526020017f7765206861766520256420746f74616c206f662077617665732100000000000081525060005461063e565b600054905090565b80600160003373ffffffffffffffffffffffffffffffffffffffff1673ffffffffffffffffffffffffffffffffffffffff1681526020019081526020016000206002019080519060200190610505929190610703565b5050565b61059f8160405160240161051d91906108e4565b6040516020818303038152906040527f41304fac000000000000000000000000000000000000000000000000000000007bffffffffffffffffffffffffffffffffffffffffffffffffffffffff19166020820180517bffffffffffffffffffffffffffffffffffffffffffffffffffffffff83818316178352505050506106da565b50565b61063a82826040516024016105b8929190610906565b6040516020818303038152906040527f319af333000000000000000000000000000000000000000000000000000000007bffffffffffffffffffffffffffffffffffffffffffffffffffffffff19166020820180517bffffffffffffffffffffffffffffffffffffffffffffffffffffffff83818316178352505050506106da565b5050565b6106d68282604051602401610654929190610936565b6040516020818303038152906040527f9710a9d0000000000000000000000000000000000000000000000000000000007bffffffffffffffffffffffffffffffffffffffffffffffffffffffff19166020820180517bffffffffffffffffffffffffffffffffffffffffffffffffffffffff83818316178352505050506106da565b5050565b60008151905060006a636f6e736f6c652e6c6f679050602083016000808483855afa5050505050565b82805461070f90610b05565b90600052602060002090601f0160209004810192826107315760008555610778565b82601f1061074a57805160ff1916838001178555610778565b82800160010185558215610778579182015b8281111561077757825182559160200191906001019061075c565b5b5090506107859190610789565b5090565b5b808211156107a257600081600090555060010161078a565b5090565b60006107b96107b4846109e4565b6109bf565b9050828152602081018484840111156107d157600080fd5b6107dc848285610ac3565b509392505050565b6000813590506107f381610c06565b92915050565b600082601f83011261080a57600080fd5b813561081a8482602086016107a6565b91505092915050565b60006020828403121561083557600080fd5b6000610843848285016107e4565b91505092915050565b60006020828403121561085e57600080fd5b600082013567ffffffffffffffff81111561087857600080fd5b610884848285016107f9565b91505092915050565b61089681610a87565b82525050565b60006108a782610a15565b6108b18185610a20565b93506108c1818560208601610ad2565b6108ca81610bf5565b840191505092915050565b6108de81610ab9565b82525050565b600060208201905081810360008301526108fe818461089c565b905092915050565b60006040820190508181036000830152610920818561089c565b905061092f602083018461088d565b9392505050565b60006040820190508181036000830152610950818561089c565b905061095f60208301846108d5565b9392505050565b600060208201905061097b60008301846108d5565b92915050565b600060608201905061099660008301866108d5565b6109a360208301856108d5565b81810360408301526109b5818461089c565b9050949350505050565b60006109c96109da565b90506109d58282610b37565b919050565b6000604051905090565b600067ffffffffffffffff8211156109ff576109fe610bc6565b5b610a0882610bf5565b9050602081019050919050565b600081519050919050565b600082825260208201905092915050565b6000610a3c82610ab9565b9150610a4783610ab9565b9250827fffffffffffffffffffffffffffffffffffffffffffffffffffffffffffffffff03821115610a7c57610a7b610b68565b5b828201905092915050565b6000610a9282610a99565b9050919050565b600073ffffffffffffffffffffffffffffffffffffffff82169050919050565b6000819050919050565b82818337600083830152505050565b60005b83811015610af0578082015181840152602081019050610ad5565b83811115610aff576000848401525b50505050565b60006002820490506001821680610b1d57607f821691505b60208210811415610b3157610b30610b97565b5b50919050565b610b4082610bf5565b810181811067ffffffffffffffff82111715610b5f57610b5e610bc6565b5b80604052505050565b7f4e487b7100000000000000000000000000000000000000000000000000000000600052601160045260246000fd5b7f4e487b7100000000000000000000000000000000000000000000000000000000600052602260045260246000fd5b7f4e487b7100000000000000000000000000000000000000000000000000000000600052604160045260246000fd5b6000601f19601f8301169050919050565b610c0f81610a87565b8114610c1a57600080fd5b5056fea2646970667358221220dbfd095de492126fa7dfbc892e10862d495b5f9ccf8e48c3d91df838f392217c64736f6c634300080400334c6f6f6b206d6f6d2c206e6f206261636b656e64212c2049206f776e20796f752074686520626f6f7463616d70206c6f616e2e2e20736f72727921200a",
  "linkReferences": {},
  "deployedLinkReferences": {}
}