{
  "_format": "hh-sol-artifact-1",
  "contractName": "WavePortal",
  "sourceName": "contracts/WavePortal.sol",
  "abi": [
    {
      "inputs": [],
      "stateMutability": "nonpayable",
      "type": "constructor"
    },
    {
      "inputs": [
        {
          "internalType": "address",
          "name": "",
          "type": "address"
        }
      ],
      "name": "brosMap",
      "outputs": [
        {
          "internalType": "uint256",
          "name": "totalWaves",
          "type": "uint256"
        },
        {
          "internalType": "uint256",
          "name": "timeStamp",
          "type": "uint256"
        }
      ],
      "stateMutability": "view",
      "type": "function"
    },
    {
      "inputs": [],
      "name": "getDate",
      "outputs": [
        {
          "internalType": "uint256",
          "name": "",
          "type": "uint256"
        }
      ],
      "stateMutability": "view",
      "type": "function"
    },
    {
      "inputs": [],
      "name": "getTotalWaves",
      "outputs": [
        {
          "internalType": "uint256",
          "name": "",
          "type": "uint256"
        }
      ],
      "stateMutability": "view",
      "type": "function"
    },
    {
      "inputs": [],
      "name": "getTotalWavesByBros",
      "outputs": [
        {
          "internalType": "uint256",
          "name": "",
          "type": "uint256"
        }
      ],
      "stateMutability": "view",
      "type": "function"
    },
    {
      "inputs": [],
      "name": "wave",
      "outputs": [],
      "stateMutability": "nonpayable",
      "type": "function"
    }
  ],
  "bytecode": "0x608060405234801561001057600080fd5b5061003c6040518060600160405280603d8152602001610984603d913961004160201b6102ee1760201c565b6101c4565b6100dd816040516024016100559190610142565b6040516020818303038152906040527f41304fac000000000000000000000000000000000000000000000000000000007bffffffffffffffffffffffffffffffffffffffffffffffffffffffff19166020820180517bffffffffffffffffffffffffffffffffffffffffffffffffffffffff83818316178352505050506100e060201b60201c565b50565b60008151905060006a636f6e736f6c652e6c6f679050602083016000808483855afa5050505050565b600061011482610164565b61011e818561016f565b935061012e818560208601610180565b610137816101b3565b840191505092915050565b6000602082019050818103600083015261015c8184610109565b905092915050565b600081519050919050565b600082825260208201905092915050565b60005b8381101561019e578082015181840152602081019050610183565b838111156101ad576000848401525b50505050565b6000601f19601f8301169050919050565b6107b1806101d36000396000f3fe608060405234801561001057600080fd5b50600436106100575760003560e01c80631e5873851461005c578063430fe9c11461008d5780636fe15b44146100ab57806380d42c45146100b55780639a2cdc08146100d3575b600080fd5b610076600480360381019061007191906104fd565b6100f1565b60405161008492919061061a565b60405180910390f35b610095610115565b6040516100a291906105ff565b60405180910390f35b6100b361015f565b005b6100bd610259565b6040516100ca91906105ff565b60405180910390f35b6100db6102a3565b6040516100e891906105ff565b60405180910390f35b60016020528060005260406000206000915090508060000154908060010154905082565b6000600160003373ffffffffffffffffffffffffffffffffffffffff1673ffffffffffffffffffffffffffffffffffffffff16815260200190815260200160002060010154905090565b6001600080828254610171919061065f565b9250508190555060018060003373ffffffffffffffffffffffffffffffffffffffff1673ffffffffffffffffffffffffffffffffffffffff16815260200190815260200160002060000160008282546101ca919061065f565b9250508190555042600160003373ffffffffffffffffffffffffffffffffffffffff1673ffffffffffffffffffffffffffffffffffffffff168152602001908152602001600020600101819055506102576040518060400160405280600d81526020017f257320686173207761766564210000000000000000000000000000000000000081525033610387565b565b6000600160003373ffffffffffffffffffffffffffffffffffffffff1673ffffffffffffffffffffffffffffffffffffffff16815260200190815260200160002060000154905090565b60006102e66040518060400160405280601a81526020017f7765206861766520256420746f74616c206f6620776176657321000000000000815250600054610423565b600054905090565b61038481604051602401610302919061057d565b6040516020818303038152906040527f41304fac000000000000000000000000000000000000000000000000000000007bffffffffffffffffffffffffffffffffffffffffffffffffffffffff19166020820180517bffffffffffffffffffffffffffffffffffffffffffffffffffffffff83818316178352505050506104bf565b50565b61041f828260405160240161039d92919061059f565b6040516020818303038152906040527f319af333000000000000000000000000000000000000000000000000000000007bffffffffffffffffffffffffffffffffffffffffffffffffffffffff19166020820180517bffffffffffffffffffffffffffffffffffffffffffffffffffffffff83818316178352505050506104bf565b5050565b6104bb82826040516024016104399291906105cf565b6040516020818303038152906040527f9710a9d0000000000000000000000000000000000000000000000000000000007bffffffffffffffffffffffffffffffffffffffffffffffffffffffff19166020820180517bffffffffffffffffffffffffffffffffffffffffffffffffffffffff83818316178352505050506104bf565b5050565b60008151905060006a636f6e736f6c652e6c6f679050602083016000808483855afa5050505050565b6000813590506104f781610764565b92915050565b60006020828403121561050f57600080fd5b600061051d848285016104e8565b91505092915050565b61052f816106b5565b82525050565b600061054082610643565b61054a818561064e565b935061055a8185602086016106f1565b61056381610753565b840191505092915050565b610577816106e7565b82525050565b600060208201905081810360008301526105978184610535565b905092915050565b600060408201905081810360008301526105b98185610535565b90506105c86020830184610526565b9392505050565b600060408201905081810360008301526105e98185610535565b90506105f8602083018461056e565b9392505050565b6000602082019050610614600083018461056e565b92915050565b600060408201905061062f600083018561056e565b61063c602083018461056e565b9392505050565b600081519050919050565b600082825260208201905092915050565b600061066a826106e7565b9150610675836106e7565b9250827fffffffffffffffffffffffffffffffffffffffffffffffffffffffffffffffff038211156106aa576106a9610724565b5b828201905092915050565b60006106c0826106c7565b9050919050565b600073ffffffffffffffffffffffffffffffffffffffff82169050919050565b6000819050919050565b60005b8381101561070f5780820151818401526020810190506106f4565b8381111561071e576000848401525b50505050565b7f4e487b7100000000000000000000000000000000000000000000000000000000600052601160045260246000fd5b6000601f19601f8301169050919050565b61076d816106b5565b811461077857600080fd5b5056fea2646970667358221220c27b2aa322bcb64932dfb57e786f272fd5b53047d035387f0dbcda905247250064736f6c634300080400334c6f6f6b206d6f6d2c206e6f206261636b656e64212c2049206f776e20796f752074686520626f6f7463616d70206c6f616e2e2e20736f72727921200a",
  "linkReferences": {},
  "deployedLinkReferences": {}
}